{
  "contractName": "Counter",
  "abi": [
    {
      "constant": true,
      "inputs": [],
      "name": "count",
      "outputs": [
        {
          "name": "",
          "type": "uint256"
        }
      ],
      "payable": false,
      "stateMutability": "view",
      "type": "function",
      "signature": "0x06661abd"
    },
    {
      "constant": false,
      "inputs": [],
      "name": "increment",
      "outputs": [],
      "payable": false,
      "stateMutability": "nonpayable",
      "type": "function",
      "signature": "0xd09de08a"
    },
    {
      "constant": false,
      "inputs": [],
      "name": "decrement",
      "outputs": [],
      "payable": false,
      "stateMutability": "nonpayable",
      "type": "function",
      "signature": "0x2baeceb7"
    }
  ],
  "bytecode": "0x608060405234801561001057600080fd5b5060f78061001f6000396000f3fe60806040526004361060525763ffffffff7c010000000000000000000000000000000000000000000000000000000060003504166306661abd811460575780632baeceb714607b578063d09de08a14608f575b600080fd5b348015606257600080fd5b50606960a1565b60408051918252519081900360200190f35b348015608657600080fd5b50608d60a7565b005b348015609a57600080fd5b50608d60c0565b60005481565b600080541160b457600080fd5b60008054600019019055565b60008054600101905556fea165627a7a72305820285e967942b952c10ed3f23f3e06c8c7baf55ab8062deefaeb9c3aacc3446fd80029",
  "source": "// SPDX-License-Identifier: MIT\npragma solidity >=0.5.0;\n\ncontract Counter {\n    uint public count;\n\n    function increment() public {\n        count += 1;\n    }\n\n    function decrement() public {\n        require(count > 0);\n        count -= 1;\n    }\n}\n",
  "sourcePath": "/Users/marcia/Documents/web3-knowledge-base/code-examples/web3-counter/contracts/Counter.sol",
  "compiler": {
    "name": "solc",
    "version": "0.5.0+commit.1d4f565a.Emscripten.clang"
  },
  "schemaVersion": "3.0.1",
  "updatedAt": "2023-03-17T08:17:15.511Z",
  "devdoc": {
    "methods": {}
  },
  "userdoc": {
    "methods": {}
  }
}